:020000040800F2
:10000000B0040020450100083504000885030008FD
:1000100089030008CD010008110A00080000000053
:10002000000000000000000000000000C105000802
:10003000D101000800000000A9040008D50600084E
:100040005F0100085F0100085F0100085F01000810
:100050005F0100085F0100085F0100085F01000800
:100060005F0100085F0100085F0100085F010008F0
:100070005F0100085F0100085F0100085F010008E0
:100080005F0100085F0100085F0100085F010008D0
:100090005F0100085F0100085F01000865020008B9
:1000A0005F0100085F0100085F0100085F010008B0
:1000B000390700083D070008590700085F010008DC
:1000C0005F0100085F0100085F0100085F01000890
:1000D0005F01000875070008410800085F0100087B
:1000E0005F0100085F0100085F0100085F01000870
:1000F0005F0100085F0100085F0100085F01000860
:100100005F0100085F0100085F0100085F0100084F
:100110005F0100085F0100085F0100085F0100083F
:100120005F0100085F0100085F0100085F0100082F
:10013000DFF80CD000F038F800480047790A0008D2
:10014000B00400200648804706480047FEE7FEE767
:10015000FEE7FEE7FEE7FEE7FEE7FEE7FEE7FEE777
:10016000D906000831010008D2B201E000F8012BE5
:10017000491EFBD270470022F6E710B513460A4627
:1001800004461946FFF7F0FF204610BD10B50022C7
:1001900000E0521C835C8C5CA34201D1002BF8D19F
:1001A000D8B2E1B2401A10BD064C074D06E0E06837
:1001B00040F0010394E8070098471034AC42F6D3AE
:1001C000FFF7BAFF280B0008480B000800BFFEE746
:1001D0007047000010B56FF0040000F067FA0A489D
:1001E00000680A49B0FBF1F0094908700846007838
:1001F00000EB4001C1EBC0104FF6FF7101EAC000F7
:100200000449088010BD00000000002000127A00A0
:1002100030000020320000200146114A12884A4373
:100220004FF0E0235A6100229A611A46126942F0A7
:1002300001021A6100BF4FF0E022106900F00102D4
:100240001AB100F48032002AF5D04FF0E022126992
:1002500022F001024FF0E0231A6100229A617047F8
:100260003200002070472DE9F041024600250026AB
:10027000002000230024002791F803C00CF00F0594
:1002800091F803C00CF0100CBCF1000F03D091F8F2
:1002900002C04CEA050591F800C0BCF1000F31D056
:1002A000146800202BE04FF0010C0CFA00F3B1F8B9
:1002B00000C00CEA03069E4220D183004FF00F0CD1
:1002C0000CFA03F7BC4305FA03FC4CEA040491F86A
:1002D00003C0BCF1280F06D14FF0010C0CFA00FC52
:1002E000C2F814C00AE091F803C0BCF1480F05D170
:1002F0004FF0010C0CFA00FCC2F810C0401C08289A
:10030000D1D31460B1F800C0BCF1FF0F34DD5468E4
:1003100000202EE000F1080C4FF0010808FA0CF361
:10032000B1F800C00CEA03069E4221D183004FF0D1
:100330000F0C0CFA03F7BC4305FA03FC4CEA040467
:1003400091F803C0BCF1280F05D100F1080C08FAA0
:100350000CF8C2F8148091F803C0BCF1480F07D123
:1003600000F1080C4FF0010808FA0CF8C2F81080F0
:10037000401C0828CED35460BDE8F081416170472D
:100380000161704700BFFEE700BFFEE710B586B011
:1003900004460121042000F099F80121480400F0EE
:1003A00085F84FF40070ADF8140018208DF8170090
:1003B00003208DF8160005A91C48FFF754FF4FF4E1
:1003C0008060ADF8140004208DF8170005A91748C7
:1003D000FFF749FF25208DF8000000208DF801006F
:1003E00001208DF802008DF80300684600F024F823
:1003F00001940020ADF810000C20ADF80E00002094
:10040000ADF80C00ADF80A00ADF8080001A90848E5
:1004100000F08EFA012240F22551054800F063FAFF
:100420000121034800F01CFA06B010BD000801408D
:10043000003801407047000070B5002100230F22F2
:10044000C47804B3154C246804F4E064C4F5E06493
:10045000210AC1F10403CA40447804FA03F1847804
:100460001440214309010E4C0678A155047804F08C
:100470001F050124AC4005786D11AD0005F1E025A4
:10048000C5F8004109E0047804F01F050124AC40E0
:10049000044D0678761145F8264070BD0CED00E05D
:1004A00000E400E080E100E07047000029B1064A66
:1004B000D2690243044BDA6104E0034AD269824301
:1004C000014BDA61704700000010024029B1064A72
:1004D00092690243044B9A6104E0034A92698243A1
:1004E000014B9A61704700000010024030B50021B6
:1004F0000022002400232D4D6D6805F00C0121B170
:10050000042905D0082923D105E0294D056022E002
:10051000274D05601FE0254D6D6805F47012234DD1
:100520006D6805F48034022505EB92421CB9214D1B
:10053000554305600BE01D4D6D6805F400351DB198
:100540001C4D5543056002E0194D5543056002E01E
:10055000174D056000BF00BF144D6D6805F0F00138
:100560000909154D6B5C0568DD4045600F4D6D68F0
:1005700005F4E061090A104D6B5C4568DD4085605B
:100580000A4D6D6805F46051C90A0B4D6B5C4568F6
:10059000DD40C560054D6D6805F44041890B074D90
:1005A0006B5CC568B5FBF3F5056130BD001002401A
:1005B00000127A0000093D003400002044000020B1
:1005C000704710B500F002F810BD00000CB5002017
:1005D000019000903348006840F480303149086051
:1005E00000BF3048006800F4003000900198401CC3
:1005F0000190009818B90198B0F5A06FF1D1294881
:10060000006800F4003010B10120009001E00020EB
:1006100000900098012843D12348006840F0100062
:10062000214908600846006820F003000860084679
:10063000006840F0020008601A48406819494860A4
:100640000846406848600846406840F4806048605A
:100650000846406820F47C1048600846406840F432
:10066000E81048600846006840F08070086000BFED
:100670000C48006800F000700028F9D00948406874
:1006800020F00300074948600846406840F0020037
:10069000486000BF0348406800F00C000828F9D10A
:1006A0000CBD00000010024000200240042808D1C8
:1006B0004FF0E021096941F004014FF0E02211619F
:1006C00007E04FF0E021096921F004014FF0E0223A
:1006D000116170477047000010B51348006840F082
:1006E00001001149086008464068104908400E4959
:1006F0004860084600680E4908400B4908600846F3
:10070000006820F4802008600846406820F4FE005D
:1007100048604FF41F008860FFF753FF4FF0006000
:100720000449086010BD0000001002400000FFF8FE
:10073000FFFFF6FE08ED00E0704700000548008866
:1007400000F0010028B10348008820F001000149B1
:1007500008807047100400400548008800F0010040
:1007600028B10348008820F0010001490880704743
:100770001008004010B540F22551244800F089F8D7
:10078000002842D022480078E0B920212148FFF714
:10079000F7FD1E48001D0088C1B21F48027800788E
:1007A000401C1D4B18701D48815418460078401E8F
:1007B0001A49085C212805D101201549087000203C
:1007C0001946087012480078D0B115A11348FFF7F8
:1007D000DDFC10B901201549087015A10F48FFF77D
:1007E000D5FC10B90020114908700C49074800F0E9
:1007F00020F964210948FFF7BEFC00200449087075
:1008000040F22551014800F01CF810BD00380140AD
:100810002F000020000801402E000020480000208A
:1008200073746F702073746D3332210014000020D4
:1008300073746172742073746D3332210000000090
:10084000704710B50022002340F66A14A14200D17F
:1008500000BF0A1201249440A3B2DC43048010BDFF
:1008600021B1828942F40052828104E082894DF6EE
:10087000FF731A408281704702460020B1F5007F65
:1008800000D100BF13880B400BB1012000E0002015
:10089000704770B50246002400230025002040F672
:1008A0006A16B14200D100BFC1F3421501F01F0327
:1008B000012606FA03F3012D02D19689334006E0A2
:1008C000022D02D1168A334001E0968A33400C1281
:1008D000012606FA04F41688344013B10CB1012045
:1008E00000E0002070BDF0B503460024002600257E
:1008F000002040F66A17B94200D100BF1846C1F384
:10090000421401F01F06012707FA06F5012C01D158
:100910000C3004E0022C01D1103000E014301AB188
:1009200007682F43076002E00768AF430760F0BD28
:100930002DE9F04786B005460E460024A24600BFCA
:10094000A1460027B08900B100BF2F462C8A4CF683
:10095000FF700440F08804432C82AC894EF6F310FB
:100960000440B08831890843718908430443AC814D
:10097000AC8A4FF6FF400440B0890443AC8201A822
:10098000FFF7B4FD1F48874202D1DDF810A001E057
:10099000DDF80CA0A88900F4004040B10AEBCA00C1
:1009A00000EB0A1031684900B0FBF1F807E00AEBF0
:1009B000CA0000EB0A1031688900B0FBF1F864202E
:1009C000B8FBF0F004012009642101FB1089A8891B
:1009D00000F4004040B1322000EBC900B0FBF1F060
:1009E00000F00700044308E0322000EB0910642106
:1009F000B0FBF1F000F00F0004432C8106B0BDE81D
:100A0000F087000000380140C1F30802828070477F
:100A100000BFFEE770B504460D4629462046FFF7A5
:100A2000F3FF00BF80212046FFF726FF0028F9D002
:100A300070BD70B505460C4604E021782846FFF7E6
:100A4000E9FF641C20780028F7D100BF4021284628
:100A5000FFF712FF0128F9D070BD02E008C8121F8D
:100A600008C1002AFAD170477047002001E001C197
:100A7000121F002AFBD1704786B0FFF7ABFB4FF483
:100A8000E130FFF783FC01211C20FFF71FFD102040
:100A90008DF8170003208DF816002020ADF8140003
:100AA00005A91848FFF7DFFB4FF40050ADF814001C
:100AB00005A91548FFF7D7FB4FF400511248FFF77F
:100AC0005DFC4FF40070ADF8140004208DF81700A1
:100AD00003208DF8160005A90C48FFF7C4FB0CA3F2
:100AE0000FCBCDE90323CDE901010AE00C480078E2
:100AF00018B901A90B48FFF79CFF4FF4FA70FFF7F4
:100B00008BFBF3E70008014000100140000C01409E
:100B100068656C6C6F20776F726C64210A0000004E
:100B20001400002000380140480B0008000000209D
:100B3000480000005A0A0008900B000848000020F6
:100B4000680400006A0A000800A24A0400000000CD
:100B500000000000010203040607080900000073FA
:100B6000746F702C73746D33320073746172742CF3
:100B700073746D33320000000000000000000000BC
:100B8000010203040102030406070809020406081F
:0400000508000131BD
:00000001FF
