Component: ARM Compiler 5.06 update 1 (build 61) Tool: armlink [4d35a8]

==============================================================================

Section Cross References

    startup_stm32f10x_hd.o(RESET) refers to startup_stm32f10x_hd.o(STACK) for __initial_sp
    startup_stm32f10x_hd.o(RESET) refers to startup_stm32f10x_hd.o(.text) for Reset_Handler
    startup_stm32f10x_hd.o(RESET) refers to stm32f10x_it.c.o(i.NMI_Handler) for NMI_Handler
    startup_stm32f10x_hd.o(RESET) refers to stm32f10x_it.c.o(i.HardFault_Handler) for HardFault_Handler
    startup_stm32f10x_hd.o(RESET) refers to stm32f10x_it.c.o(i.MemManage_Handler) for MemManage_Handler
    startup_stm32f10x_hd.o(RESET) refers to stm32f10x_it.c.o(i.BusFault_Handler) for BusFault_Handler
    startup_stm32f10x_hd.o(RESET) refers to stm32f10x_it.c.o(i.UsageFault_Handler) for UsageFault_Handler
    startup_stm32f10x_hd.o(RESET) refers to stm32f10x_it.c.o(i.SVC_Handler) for SVC_Handler
    startup_stm32f10x_hd.o(RESET) refers to stm32f10x_it.c.o(i.DebugMon_Handler) for DebugMon_Handler
    startup_stm32f10x_hd.o(RESET) refers to stm32f10x_it.c.o(i.PendSV_Handler) for PendSV_Handler
    startup_stm32f10x_hd.o(RESET) refers to stm32f10x_it.c.o(i.SysTick_Handler) for SysTick_Handler
    startup_stm32f10x_hd.o(RESET) refers to stm32f10x_it.c.o(i.TIM2_IRQHandler) for TIM2_IRQHandler
    startup_stm32f10x_hd.o(RESET) refers to stm32f10x_it.c.o(i.TIM3_IRQHandler) for TIM3_IRQHandler
    startup_stm32f10x_hd.o(RESET) refers to stm32f10x_it.c.o(i.TIM4_IRQHandler) for TIM4_IRQHandler
    startup_stm32f10x_hd.o(RESET) refers to stm32f10x_it.c.o(i.USART2_IRQHandler) for USART2_IRQHandler
    startup_stm32f10x_hd.o(.text) refers to system_stm32f10x.o(i.SystemInit) for SystemInit
    startup_stm32f10x_hd.o(.text) refers to entry.o(.ARM.Collect$$$$00000000) for __main
    system_stm32f10x.o(i.SetSysClock) refers to system_stm32f10x.o(i.SetSysClockTo72) for SetSysClockTo72
==============================================================================

Removing Unused input sections from the image.

    Removing startup_stm32f10x_hd.o(HEAP), (512 bytes).
    Removing core_cm3.o(.emb_text), (32 bytes).
    Removing system_stm32f10x.o(i.SystemCoreClockUpdate), (164 bytes).
    Removing delay.o(i.Delay_us), (76 bytes).
    Removing pwm_out.o(i.PWM_Init), (152 bytes).
    Removing i2c.o(i.I2C_ACK), (80 bytes).
    Removing i2c.o(i.I2C_NACK), (80 bytes).
    Removing i2c.o(i.I2C_Start), (76 bytes).
    Removing i2c.o(i.I2C_Stop), (76 bytes).
    Removing i2c.o(i.I2C_Wait_ACK), (100 bytes).
    Removing i2c.o(i.IIC_Init), (60 bytes).
    Removing motor_pid.o(i.L_Encoder_Speed_Measure_Init), (160 bytes).
    Removing motor_pid.o(i.Motor_PWM_Init), (180 bytes).
    Removing motor_pid.o(i.Motor_Timer_Init), (92 bytes).
    Removing motor_pid.o(i.R_Encoder_Speed_Measure_Init), (160 bytes).
    Removing motor_pid.o(.data), (8 bytes).
    Removing uart.o(i.My_Uart_Init), (164 bytes).
    Removing misc.o(i.NVIC_SetVectorTable), (20 bytes).
==============================================================================

Image Symbol Table

    Local Symbols

    Symbol Name                              Value     Ov Type        Size  Object(Section)

    ../clib/microlib/init/entry.s            0x00000000   Number         0  entry11b.o ABSOLUTE
    ../clib/microlib/init/entry.s            0x00000000   Number         0  entry9a.o ABSOLUTE
    ../clib/microlib/init/entry.s            0x00000000   Number         0  entry11a.o ABSOLUTE
    ../clib/microlib/init/entry.s            0x00000000   Number         0  entry10b.o ABSOLUTE
    ../clib/microlib/init/entry.s            0x00000000   Number         0  entry2.o ABSOLUTE
    ../clib/microlib/init/entry.s            0x00000000   Number         0  entry10a.o ABSOLUTE
    ../clib/microlib/init/entry.s            0x00000000   Number         0  entry9b.o ABSOLUTE
    ../clib/microlib/init/entry.s            0x00000000   Number         0  entry8b.o ABSOLUTE
    ../clib/microlib/init/entry.s            0x00000000   Number         0  entry8a.o ABSOLUTE
    ../clib/microlib/init/entry.s            0x00000000   Number         0  entry7b.o ABSOLUTE
    ../clib/microlib/init/entry.s            0x00000000   Number         0  entry7a.o ABSOLUTE
    ../clib/microlib/init/entry.s            0x00000000   Number         0  entry5.o ABSOLUTE
    ../clib/microlib/init/entry.s            0x00000000   Number         0  entry.o ABSOLUTE
    ..\Libraries\CMSIS\core_cm3.c            0x00000000   Number         0  core_cm3.o ABSOLUTE
    ..\Libraries\CMSIS\startup\startup_stm32f10x_hd.s 0x00000000   Number         0  startup_stm32f10x_hd.o ABSOLUTE
    ..\Libraries\CMSIS\system_stm32f10x.c    0x00000000   Number         0  system_stm32f10x.o ABSOLUTE
    ..\Libraries\STM32F10x_StdPeriph_Driver\src\misc.c 0x00000000   Number         0  misc.o ABSOLUTE
    ..\Libraries\STM32F10x_StdPeriph_Driver\src\stm32f10x_adc.c 0x00000000   Number         0  stm32f10x_adc.o ABSOLUTE
    ..\Libraries\STM32F10x_StdPeriph_Driver\src\stm32f10x_bkp.c 0x00000000   Number         0  stm32f10x_bkp.o ABSOLUTE
    ..\Libraries\STM32F10x_StdPeriph_Driver\src\stm32f10x_can.c 0x00000000   Number         0  stm32f10x_can.o ABSOLUTE
    ..\Libraries\STM32F10x_StdPeriph_Driver\src\stm32f10x_cec.c 0x00000000   Number         0  stm32f10x_cec.o ABSOLUTE
    ..\Libraries\STM32F10x_StdPeriph_Driver\src\stm32f10x_crc.c 0x00000000   Number         0  stm32f10x_crc.o ABSOLUTE
    ..\Libraries\STM32F10x_StdPeriph_Driver\src\stm32f10x_dac.c 0x00000000   Number         0  stm32f10x_dac.o ABSOLUTE
    ..\Libraries\STM32F10x_StdPeriph_Driver\src\stm32f10x_dbgmcu.c 0x00000000   Number         0  stm32f10x_dbgmcu.o ABSOLUTE
    ..\Libraries\STM32F10x_StdPeriph_Driver\src\stm32f10x_dma.c 0x00000000   Number         0  stm32f10x_dma.o ABSOLUTE
    ..\Libraries\STM32F10x_StdPeriph_Driver\src\stm32f10x_exti.c 0x00000000   Number         0  stm32f10x_exti.o ABSOLUTE
    ..\Libraries\STM32F10x_StdPeriph_Driver\src\stm32f10x_flash.c 0x00000000   Number         0  stm32f10x_flash.o ABSOLUTE
    ..\Libraries\STM32F10x_StdPeriph_Driver\src\stm32f10x_fsmc.c 0x00000000   Number         0  stm32f10x_fsmc.o ABSOLUTE
    ..\Libraries\STM32F10x_StdPeriph_Driver\src\stm32f10x_gpio.c 0x00000000   Number         0  stm32f10x_gpio.o ABSOLUTE
    ..\Libraries\STM32F10x_StdPeriph_Driver\src\stm32f10x_i2c.c 0x00000000   Number         0  stm32f10x_i2c.o ABSOLUTE
    ..\Libraries\STM32F10x_StdPeriph_Driver\src\stm32f10x_iwdg.c 0x00000000   Number         0  stm32f10x_iwdg.o ABSOLUTE
    ..\Libraries\STM32F10x_StdPeriph_Driver\src\stm32f10x_pwr.c 0x00000000   Number         0  stm32f10x_pwr.o ABSOLUTE
    ..\Libraries\STM32F10x_StdPeriph_Driver\src\stm32f10x_rcc.c 0x00000000   Number         0  stm32f10x_rcc.o ABSOLUTE
    ..\Libraries\STM32F10x_StdPeriph_Driver\src\stm32f10x_rtc.c 0x00000000   Number         0  stm32f10x_rtc.o ABSOLUTE
    ..\Libraries\STM32F10x_StdPeriph_Driver\src\stm32f10x_sdio.c 0x00000000   Number         0  stm32f10x_sdio.o ABSOLUTE
    ..\Libraries\STM32F10x_StdPeriph_Driver\src\stm32f10x_spi.c 0x00000000   Number         0  stm32f10x_spi.o ABSOLUTE
    ..\Libraries\STM32F10x_StdPeriph_Driver\src\stm32f10x_tim.c 0x00000000   Number         0  stm32f10x_tim.o ABSOLUTE
    ..\Libraries\STM32F10x_StdPeriph_Driver\src\stm32f10x_usart.c 0x00000000   Number         0  stm32f10x_usart.o ABSOLUTE
    ..\Libraries\STM32F10x_StdPeriph_Driver\src\stm32f10x_wwdg.c 0x00000000   Number         0  stm32f10x_wwdg.o ABSOLUTE
    ..\User\Delay.c                          0x00000000   Number         0  delay.o ABSOLUTE
    ..\User\External_interrupt.c             0x00000000   Number         0  external_interrupt.o ABSOLUTE
    ..\User\I2C.c                            0x00000000   Number         0  i2c.o ABSOLUTE
    ..\User\Motor_Pid.c                      0x00000000   Number         0  motor_pid.o ABSOLUTE
    ..\User\Pwm_Out.c                        0x00000000   Number         0  pwm_out.o ABSOLUTE
    ..\User\Timer_interrupt.c                0x00000000   Number         0  timer_interrupt.o ABSOLUTE
    ..\User\UART.c                           0x00000000   Number         0  uart.o ABSOLUTE
    ..\User\main.c.c                         0x00000000   Number         0  main.c.o ABSOLUTE
    ..\User\stm32f10x_it.c.c                 0x00000000   Number         0  stm32f10x_it.c.o ABSOLUTE
    ..\\Libraries\\CMSIS\\core_cm3.c         0x00000000   Number         0  core_cm3.o ABSOLUTE
    dc.s                                     0x00000000   Number         0  dc.o ABSOLUTE
    handlers.s                               0x00000000   Number         0  handlers.o ABSOLUTE
    init.s                                   0x00000000   Number         0  init.o ABSOLUTE
    RESET                                    0x08000000   Section      304  startup_stm32f10x_hd.o(RESET)
    .ARM.Collect$$$$00000000                 0x08000130   Section        0  entry.o(.ARM.Collect$$$$00000000)
    .ARM.Collect$$$$00000001                 0x08000130   Section        4  entry2.o(.ARM.Collect$$$$00000001)
    .ARM.Collect$$$$00000004                 0x08000134   Section        4  entry5.o(.ARM.Collect$$$$00000004)
    .ARM.Collect$$$$00000008                 0x08000138   Section        0  entry7b.o(.ARM.Collect$$$$00000008)
    .ARM.Collect$$$$0000000A                 0x08000138   Section        0  entry8b.o(.ARM.Collect$$$$0000000A)
    .ARM.Collect$$$$0000000B                 0x08000138   Section        8  entry9a.o(.ARM.Collect$$$$0000000B)
    .ARM.Collect$$$$0000000D                 0x08000140   Section        0  entry10a.o(.ARM.Collect$$$$0000000D)
    .ARM.Collect$$$$0000000F                 0x08000140   Section        0  entry11a.o(.ARM.Collect$$$$0000000F)
    .ARM.Collect$$$$00002712                 0x08000140   Section        4  entry2.o(.ARM.Collect$$$$00002712)
    __lit__00000000                          0x08000140   Data           4  entry2.o(.ARM.Collect$$$$00002712)
    .text                                    0x08000144   Section       36  startup_stm32f10x_hd.o(.text)
    .text                                    0x08000168   Section       36  init.o(.text)
    i.BusFault_Handler                       0x0800018c   Section        0  stm32f10x_it.c.o(i.BusFault_Handler)
    i.DebugMon_Handler                       0x08000190   Section        0  stm32f10x_it.c.o(i.DebugMon_Handler)
    i.Delay_Init                             0x08000194   Section        0  delay.o(i.Delay_Init)
    i.Delay_ms                               0x080001d8   Section        0  delay.o(i.Delay_ms)
    i.GPIO_Init                              0x08000224   Section        0  stm32f10x_gpio.o(i.GPIO_Init)
    i.GPIO_PIN_Init                          0x0800033a   Section        0  motor_pid.o(i.GPIO_PIN_Init)
    i.GPIO_ResetBits                         0x0800036c   Section        0  stm32f10x_gpio.o(i.GPIO_ResetBits)
    i.GPIO_SetBits                           0x08000370   Section        0  stm32f10x_gpio.o(i.GPIO_SetBits)
    i.HardFault_Handler                      0x08000374   Section        0  stm32f10x_it.c.o(i.HardFault_Handler)
    i.MemManage_Handler                      0x08000378   Section        0  stm32f10x_it.c.o(i.MemManage_Handler)
    i.Motor_init                             0x0800037c   Section        0  motor_pid.o(i.Motor_init)
    i.NMI_Handler                            0x0800040c   Section        0  stm32f10x_it.c.o(i.NMI_Handler)
    i.NVIC_Init                              0x08000410   Section        0  misc.o(i.NVIC_Init)
    i.NVIC_PriorityGroupConfig               0x08000480   Section        0  misc.o(i.NVIC_PriorityGroupConfig)
    i.PendSV_Handler                         0x08000494   Section        0  stm32f10x_it.c.o(i.PendSV_Handler)
    i.RCC_APB1PeriphClockCmd                 0x08000498   Section        0  stm32f10x_rcc.o(i.RCC_APB1PeriphClockCmd)
    i.RCC_APB2PeriphClockCmd                 0x080004b8   Section        0  stm32f10x_rcc.o(i.RCC_APB2PeriphClockCmd)
    i.SVC_Handler                            0x080004d8   Section        0  stm32f10x_it.c.o(i.SVC_Handler)
    i.SetSysClock                            0x080004da   Section        0  system_stm32f10x.o(i.SetSysClock)
    SetSysClock                              0x080004db   Thumb Code     8  system_stm32f10x.o(i.SetSysClock)
    i.SetSysClockTo72                        0x080004e4   Section        0  system_stm32f10x.o(i.SetSysClockTo72)
    SetSysClockTo72                          0x080004e5   Thumb Code   214  system_stm32f10x.o(i.SetSysClockTo72)
    i.SysTick_CLKSourceConfig                0x080005c4   Section        0  misc.o(i.SysTick_CLKSourceConfig)
    i.SysTick_Handler                        0x080005ec   Section        0  stm32f10x_it.c.o(i.SysTick_Handler)
    i.SystemInit                             0x080005f0   Section        0  system_stm32f10x.o(i.SystemInit)
    i.TIM2_IRQHandler                        0x08000650   Section        0  stm32f10x_it.c.o(i.TIM2_IRQHandler)
    i.TIM3_IRQHandler                        0x080006a4   Section        0  stm32f10x_it.c.o(i.TIM3_IRQHandler)
    i.TIM3_Init                              0x08000710   Section        0  pwm_out.o(i.TIM3_Init)
    i.TIM4_IRQHandler                        0x08000778   Section        0  stm32f10x_it.c.o(i.TIM4_IRQHandler)
    i.TIM_ClearITPendingBit                  0x08000794   Section        0  stm32f10x_tim.o(i.TIM_ClearITPendingBit)
    i.TIM_Cmd                                0x0800079a   Section        0  stm32f10x_tim.o(i.TIM_Cmd)
    i.TIM_GetITStatus                        0x080007b2   Section        0  stm32f10x_tim.o(i.TIM_GetITStatus)
    i.TIM_ITConfig                           0x080007d4   Section        0  stm32f10x_tim.o(i.TIM_ITConfig)
    i.TIM_TimeBaseInit                       0x080007e8   Section        0  stm32f10x_tim.o(i.TIM_TimeBaseInit)
    i.USART2_IRQHandler                      0x0800088c   Section        0  stm32f10x_it.c.o(i.USART2_IRQHandler)
    i.USART_GetFlagStatus                    0x0800088e   Section        0  stm32f10x_usart.o(i.USART_GetFlagStatus)
    i.USART_SendData                         0x080008a8   Section        0  stm32f10x_usart.o(i.USART_SendData)
    i.Up_Com_data                            0x080008b0   Section        0  uart.o(i.Up_Com_data)
    i.UsageFault_Handler                     0x08000994   Section        0  stm32f10x_it.c.o(i.UsageFault_Handler)
    i.Usart_SendArray                        0x08000998   Section        0  uart.o(i.Usart_SendArray)
    i.Usart_SendByte                         0x080009c8   Section        0  uart.o(i.Usart_SendByte)
    i.__scatterload_copy                     0x080009e6   Section       14  handlers.o(i.__scatterload_copy)
    i.__scatterload_null                     0x080009f4   Section        2  handlers.o(i.__scatterload_null)
    i.__scatterload_zeroinit                 0x080009f6   Section       14  handlers.o(i.__scatterload_zeroinit)
    i.led_init                               0x08000a04   Section        0  pwm_out.o(i.led_init)
    i.main                                   0x08000a3c   Section        0  main.c.o(i.main)
    .data                                    0x20000000   Section       20  system_stm32f10x.o(.data)
    .data                                    0x20000014   Section        2  main.c.o(.data)
    .data                                    0x20000016   Section        2  stm32f10x_it.c.o(.data)
    .data                                    0x20000018   Section        4  delay.o(.data)
    fac_us                                   0x20000018   Data           1  delay.o(.data)
    fac_ms                                   0x2000001a   Data           2  delay.o(.data)
    .bss                                     0x2000001c   Section       24  motor_pid.o(.bss)
    STACK                                    0x20000038   Section     1024  startup_stm32f10x_hd.o(STACK)

    Global Symbols

    Symbol Name                              Value     Ov Type        Size  Object(Section)

    BuildAttributes$$THM_ISAv4$P$D$K$B$S$PE$A:L22UL41UL21$X:L11$S22US41US21$IEEE1$IW$USESV6$~STKCKD$USESV7$~SHL$OSPACE$EBA8$MICROLIB$REQ8$PRES8$EABIv2 0x00000000   Number         0  anon$$obj.o ABSOLUTE
    __ARM_use_no_argv                        0x00000000   Number         0  main.c.o ABSOLUTE
    __cpp_initialize__aeabi_                  - Undefined Weak Reference
    __cxa_finalize                            - Undefined Weak Reference
    __decompress                              - Undefined Weak Reference
    _clock_init                               - Undefined Weak Reference
    _microlib_exit                            - Undefined Weak Reference
    __Vectors_Size                           0x00000130   Number         0  startup_stm32f10x_hd.o ABSOLUTE
    __Vectors                                0x08000000   Data           4  startup_stm32f10x_hd.o(RESET)
    __Vectors_End                            0x08000130   Data           0  startup_stm32f10x_hd.o(RESET)
    __main                                   0x08000131   Thumb Code     0  entry.o(.ARM.Collect$$$$00000000)
    _main_stk                                0x08000131   Thumb Code     0  entry2.o(.ARM.Collect$$$$00000001)
    _main_scatterload                        0x08000135   Thumb Code     0  entry5.o(.ARM.Collect$$$$00000004)
    __main_after_scatterload                 0x08000139   Thumb Code     0  entry5.o(.ARM.Collect$$$$00000004)
    _main_clock                              0x08000139   Thumb Code     0  entry7b.o(.ARM.Collect$$$$00000008)
    _main_cpp_init                           0x08000139   Thumb Code     0  entry8b.o(.ARM.Collect$$$$0000000A)
    _main_init                               0x08000139   Thumb Code     0  entry9a.o(.ARM.Collect$$$$0000000B)
    __rt_final_cpp                           0x08000141   Thumb Code     0  entry10a.o(.ARM.Collect$$$$0000000D)
    __rt_final_exit                          0x08000141   Thumb Code     0  entry11a.o(.ARM.Collect$$$$0000000F)
    Reset_Handler                            0x08000145   Thumb Code     8  startup_stm32f10x_hd.o(.text)
    ADC1_2_IRQHandler                        0x0800015f   Thumb Code     0  startup_stm32f10x_hd.o(.text)
    ADC3_IRQHandler                          0x0800015f   Thumb Code     0  startup_stm32f10x_hd.o(.text)
    CAN1_RX1_IRQHandler                      0x0800015f   Thumb Code     0  startup_stm32f10x_hd.o(.text)
    CAN1_SCE_IRQHandler                      0x0800015f   Thumb Code     0  startup_stm32f10x_hd.o(.text)
    DMA1_Channel1_IRQHandler                 0x0800015f   Thumb Code     0  startup_stm32f10x_hd.o(.text)
    DMA1_Channel2_IRQHandler                 0x0800015f   Thumb Code     0  startup_stm32f10x_hd.o(.text)
    DMA1_Channel3_IRQHandler                 0x0800015f   Thumb Code     0  startup_stm32f10x_hd.o(.text)
    DMA1_Channel4_IRQHandler                 0x0800015f   Thumb Code     0  startup_stm32f10x_hd.o(.text)
    DMA1_Channel5_IRQHandler                 0x0800015f   Thumb Code     0  startup_stm32f10x_hd.o(.text)
    DMA1_Channel6_IRQHandler                 0x0800015f   Thumb Code     0  startup_stm32f10x_hd.o(.text)
    DMA1_Channel7_IRQHandler                 0x0800015f   Thumb Code     0  startup_stm32f10x_hd.o(.text)
    DMA2_Channel1_IRQHandler                 0x0800015f   Thumb Code     0  startup_stm32f10x_hd.o(.text)
    DMA2_Channel2_IRQHandler                 0x0800015f   Thumb Code     0  startup_stm32f10x_hd.o(.text)
    DMA2_Channel3_IRQHandler                 0x0800015f   Thumb Code     0  startup_stm32f10x_hd.o(.text)
    DMA2_Channel4_5_IRQHandler               0x0800015f   Thumb Code     0  startup_stm32f10x_hd.o(.text)
    EXTI0_IRQHandler                         0x0800015f   Thumb Code     0  startup_stm32f10x_hd.o(.text)
    EXTI15_10_IRQHandler                     0x0800015f   Thumb Code     0  startup_stm32f10x_hd.o(.text)
    EXTI1_IRQHandler                         0x0800015f   Thumb Code     0  startup_stm32f10x_hd.o(.text)
    EXTI2_IRQHandler                         0x0800015f   Thumb Code     0  startup_stm32f10x_hd.o(.text)
    EXTI3_IRQHandler                         0x0800015f   Thumb Code     0  startup_stm32f10x_hd.o(.text)
    EXTI4_IRQHandler                         0x0800015f   Thumb Code     0  startup_stm32f10x_hd.o(.text)
    EXTI9_5_IRQHandler                       0x0800015f   Thumb Code     0  startup_stm32f10x_hd.o(.text)
    FLASH_IRQHandler                         0x0800015f   Thumb Code     0  startup_stm32f10x_hd.o(.text)
    FSMC_IRQHandler                          0x0800015f   Thumb Code     0  startup_stm32f10x_hd.o(.text)
    I2C1_ER_IRQHandler                       0x0800015f   Thumb Code     0  startup_stm32f10x_hd.o(.text)
    I2C1_EV_IRQHandler                       0x0800015f   Thumb Code     0  startup_stm32f10x_hd.o(.text)
    I2C2_ER_IRQHandler                       0x0800015f   Thumb Code     0  startup_stm32f10x_hd.o(.text)
    I2C2_EV_IRQHandler                       0x0800015f   Thumb Code     0  startup_stm32f10x_hd.o(.text)
    PVD_IRQHandler                           0x0800015f   Thumb Code     0  startup_stm32f10x_hd.o(.text)
    RCC_IRQHandler                           0x0800015f   Thumb Code     0  startup_stm32f10x_hd.o(.text)
    RTCAlarm_IRQHandler                      0x0800015f   Thumb Code     0  startup_stm32f10x_hd.o(.text)
    RTC_IRQHandler                           0x0800015f   Thumb Code     0  startup_stm32f10x_hd.o(.text)
    SDIO_IRQHandler                          0x0800015f   Thumb Code     0  startup_stm32f10x_hd.o(.text)
    SPI1_IRQHandler                          0x0800015f   Thumb Code     0  startup_stm32f10x_hd.o(.text)
    SPI2_IRQHandler                          0x0800015f   Thumb Code     0  startup_stm32f10x_hd.o(.text)
    SPI3_IRQHandler                          0x0800015f   Thumb Code     0  startup_stm32f10x_hd.o(.text)
    TAMPER_IRQHandler                        0x0800015f   Thumb Code     0  startup_stm32f10x_hd.o(.text)
    TIM1_BRK_IRQHandler                      0x0800015f   Thumb Code     0  startup_stm32f10x_hd.o(.text)
    TIM1_CC_IRQHandler                       0x0800015f   Thumb Code     0  startup_stm32f10x_hd.o(.text)
    TIM1_TRG_COM_IRQHandler                  0x0800015f   Thumb Code     0  startup_stm32f10x_hd.o(.text)
    TIM1_UP_IRQHandler                       0x0800015f   Thumb Code     0  startup_stm32f10x_hd.o(.text)
    TIM5_IRQHandler                          0x0800015f   Thumb Code     0  startup_stm32f10x_hd.o(.text)
    TIM6_IRQHandler                          0x0800015f   Thumb Code     0  startup_stm32f10x_hd.o(.text)
    TIM7_IRQHandler                          0x0800015f   Thumb Code     0  startup_stm32f10x_hd.o(.text)
    TIM8_BRK_IRQHandler                      0x0800015f   Thumb Code     0  startup_stm32f10x_hd.o(.text)
    TIM8_CC_IRQHandler                       0x0800015f   Thumb Code     0  startup_stm32f10x_hd.o(.text)
    TIM8_TRG_COM_IRQHandler                  0x0800015f   Thumb Code     0  startup_stm32f10x_hd.o(.text)
    TIM8_UP_IRQHandler                       0x0800015f   Thumb Code     0  startup_stm32f10x_hd.o(.text)
    UART4_IRQHandler                         0x0800015f   Thumb Code     0  startup_stm32f10x_hd.o(.text)
    UART5_IRQHandler                         0x0800015f   Thumb Code     0  startup_stm32f10x_hd.o(.text)
    USART1_IRQHandler                        0x0800015f   Thumb Code     0  startup_stm32f10x_hd.o(.text)
    USART3_IRQHandler                        0x0800015f   Thumb Code     0  startup_stm32f10x_hd.o(.text)
    USBWakeUp_IRQHandler                     0x0800015f   Thumb Code     0  startup_stm32f10x_hd.o(.text)
    USB_HP_CAN1_TX_IRQHandler                0x0800015f   Thumb Code     0  startup_stm32f10x_hd.o(.text)
    USB_LP_CAN1_RX0_IRQHandler               0x0800015f   Thumb Code     0  startup_stm32f10x_hd.o(.text)
    WWDG_IRQHandler                          0x0800015f   Thumb Code     0  startup_stm32f10x_hd.o(.text)
    __scatterload                            0x08000169   Thumb Code    28  init.o(.text)
    __scatterload_rt2                        0x08000169   Thumb Code     0  init.o(.text)
    BusFault_Handler                         0x0800018d   Thumb Code     4  stm32f10x_it.c.o(i.BusFault_Handler)
    DebugMon_Handler                         0x08000191   Thumb Code     2  stm32f10x_it.c.o(i.DebugMon_Handler)
    Delay_Init                               0x08000195   Thumb Code    50  delay.o(i.Delay_Init)
    Delay_ms                                 0x080001d9   Thumb Code    72  delay.o(i.Delay_ms)
    GPIO_Init                                0x08000225   Thumb Code   278  stm32f10x_gpio.o(i.GPIO_Init)
    GPIO_PIN_Init                            0x0800033b   Thumb Code    50  motor_pid.o(i.GPIO_PIN_Init)
    GPIO_ResetBits                           0x0800036d   Thumb Code     4  stm32f10x_gpio.o(i.GPIO_ResetBits)
    GPIO_SetBits                             0x08000371   Thumb Code     4  stm32f10x_gpio.o(i.GPIO_SetBits)
    HardFault_Handler                        0x08000375   Thumb Code     4  stm32f10x_it.c.o(i.HardFault_Handler)
    MemManage_Handler                        0x08000379   Thumb Code     4  stm32f10x_it.c.o(i.MemManage_Handler)
    Motor_init                               0x0800037d   Thumb Code   116  motor_pid.o(i.Motor_init)
    NMI_Handler                              0x0800040d   Thumb Code     2  stm32f10x_it.c.o(i.NMI_Handler)
    NVIC_Init                                0x08000411   Thumb Code   100  misc.o(i.NVIC_Init)
    NVIC_PriorityGroupConfig                 0x08000481   Thumb Code    10  misc.o(i.NVIC_PriorityGroupConfig)
    PendSV_Handler                           0x08000495   Thumb Code     2  stm32f10x_it.c.o(i.PendSV_Handler)
    RCC_APB1PeriphClockCmd                   0x08000499   Thumb Code    26  stm32f10x_rcc.o(i.RCC_APB1PeriphClockCmd)
    RCC_APB2PeriphClockCmd                   0x080004b9   Thumb Code    26  stm32f10x_rcc.o(i.RCC_APB2PeriphClockCmd)
    SVC_Handler                              0x080004d9   Thumb Code     2  stm32f10x_it.c.o(i.SVC_Handler)
    SysTick_CLKSourceConfig                  0x080005c5   Thumb Code    40  misc.o(i.SysTick_CLKSourceConfig)
    SysTick_Handler                          0x080005ed   Thumb Code     2  stm32f10x_it.c.o(i.SysTick_Handler)
    SystemInit                               0x080005f1   Thumb Code    78  system_stm32f10x.o(i.SystemInit)
    TIM2_IRQHandler                          0x08000651   Thumb Code    68  stm32f10x_it.c.o(i.TIM2_IRQHandler)
    TIM3_IRQHandler                          0x080006a5   Thumb Code    92  stm32f10x_it.c.o(i.TIM3_IRQHandler)
    TIM3_Init                                0x08000711   Thumb Code    98  pwm_out.o(i.TIM3_Init)
    TIM4_IRQHandler                          0x08000779   Thumb Code    24  stm32f10x_it.c.o(i.TIM4_IRQHandler)
    TIM_ClearITPendingBit                    0x08000795   Thumb Code     6  stm32f10x_tim.o(i.TIM_ClearITPendingBit)
    TIM_Cmd                                  0x0800079b   Thumb Code    24  stm32f10x_tim.o(i.TIM_Cmd)
    TIM_GetITStatus                          0x080007b3   Thumb Code    34  stm32f10x_tim.o(i.TIM_GetITStatus)
    TIM_ITConfig                             0x080007d5   Thumb Code    18  stm32f10x_tim.o(i.TIM_ITConfig)
    TIM_TimeBaseInit                         0x080007e9   Thumb Code   122  stm32f10x_tim.o(i.TIM_TimeBaseInit)
    USART2_IRQHandler                        0x0800088d   Thumb Code     2  stm32f10x_it.c.o(i.USART2_IRQHandler)
    USART_GetFlagStatus                      0x0800088f   Thumb Code    26  stm32f10x_usart.o(i.USART_GetFlagStatus)
    USART_SendData                           0x080008a9   Thumb Code     8  stm32f10x_usart.o(i.USART_SendData)
    Up_Com_data                              0x080008b1   Thumb Code   222  uart.o(i.Up_Com_data)
    UsageFault_Handler                       0x08000995   Thumb Code     4  stm32f10x_it.c.o(i.UsageFault_Handler)
    Usart_SendArray                          0x08000999   Thumb Code    48  uart.o(i.Usart_SendArray)
    Usart_SendByte                           0x080009c9   Thumb Code    30  uart.o(i.Usart_SendByte)
    __scatterload_copy                       0x080009e7   Thumb Code    14  handlers.o(i.__scatterload_copy)
    __scatterload_null                       0x080009f5   Thumb Code     2  handlers.o(i.__scatterload_null)
    __scatterload_zeroinit                   0x080009f7   Thumb Code    14  handlers.o(i.__scatterload_zeroinit)
    led_init                                 0x08000a05   Thumb Code    50  pwm_out.o(i.led_init)
    main                                     0x08000a3d   Thumb Code    78  main.c.o(i.main)
    Region$$Table$$Base                      0x08000a90   Number         0  anon$$obj.o(Region$$Table)
    Region$$Table$$Limit                     0x08000ab0   Number         0  anon$$obj.o(Region$$Table)
    SystemCoreClock                          0x20000000   Data           4  system_stm32f10x.o(.data)
    AHBPrescTable                            0x20000004   Data          16  system_stm32f10x.o(.data)
    pwm_set                                  0x20000014   Data           2  main.c.o(.data)
    pwm_val                                  0x20000016   Data           2  stm32f10x_it.c.o(.data)
    motor_l_pid                              0x2000001c   Data          12  motor_pid.o(.bss)
    motor_r_pid                              0x20000028   Data          12  motor_pid.o(.bss)
    __initial_sp                             0x20000438   Data           0  startup_stm32f10x_hd.o(STACK)



==============================================================================

Memory Map of the image

  Image Entry point : 0x08000131

  Load Region LR_IROM1 (Base: 0x08000000, Size: 0x00000acc, Max: 0x00040000, ABSOLUTE)

    Execution Region ER_IROM1 (Exec base: 0x08000000, Load base: 0x08000000, Size: 0x00000ab0, Max: 0x00040000, ABSOLUTE)

    Exec Addr    Load Addr    Size         Type   Attr      Idx    E Section Name        Object

    0x08000000   0x08000000   0x00000130   Data   RO            3    RESET               startup_stm32f10x_hd.o
    0x08000130   0x08000130   0x00000000   Code   RO         3510  * .ARM.Collect$$$$00000000  mc_w.l(entry.o)
    0x08000130   0x08000130   0x00000004   Code   RO         3513    .ARM.Collect$$$$00000001  mc_w.l(entry2.o)
    0x08000134   0x08000134   0x00000004   Code   RO         3516    .ARM.Collect$$$$00000004  mc_w.l(entry5.o)
    0x08000138   0x08000138   0x00000000   Code   RO         3518    .ARM.Collect$$$$00000008  mc_w.l(entry7b.o)
    0x08000138   0x08000138   0x00000000   Code   RO         3520    .ARM.Collect$$$$0000000A  mc_w.l(entry8b.o)
    0x08000138   0x08000138   0x00000008   Code   RO         3521    .ARM.Collect$$$$0000000B  mc_w.l(entry9a.o)
    0x08000140   0x08000140   0x00000000   Code   RO         3523    .ARM.Collect$$$$0000000D  mc_w.l(entry10a.o)
    0x08000140   0x08000140   0x00000000   Code   RO         3525    .ARM.Collect$$$$0000000F  mc_w.l(entry11a.o)
    0x08000140   0x08000140   0x00000004   Code   RO         3514    .ARM.Collect$$$$00002712  mc_w.l(entry2.o)
    0x08000144   0x08000144   0x00000024   Code   RO            4    .text               startup_stm32f10x_hd.o
    0x08000168   0x08000168   0x00000024   Code   RO         3527    .text               mc_w.l(init.o)
    0x0800018c   0x0800018c   0x00000004   Code   RO          247    i.BusFault_Handler  stm32f10x_it.c.o
    0x08000190   0x08000190   0x00000002   Code   RO          248    i.DebugMon_Handler  stm32f10x_it.c.o
    0x08000192   0x08000192   0x00000002   PAD
    0x08000194   0x08000194   0x00000044   Code   RO          341    i.Delay_Init        delay.o
    0x080001d8   0x080001d8   0x0000004c   Code   RO          342    i.Delay_ms          delay.o
    0x08000224   0x08000224   0x00000116   Code   RO         1694    i.GPIO_Init         stm32f10x_gpio.o
    0x0800033a   0x0800033a   0x00000032   Code   RO          464    i.GPIO_PIN_Init     motor_pid.o
    0x0800036c   0x0800036c   0x00000004   Code   RO         1701    i.GPIO_ResetBits    stm32f10x_gpio.o
    0x08000370   0x08000370   0x00000004   Code   RO         1702    i.GPIO_SetBits      stm32f10x_gpio.o
    0x08000374   0x08000374   0x00000004   Code   RO          249    i.HardFault_Handler  stm32f10x_it.c.o
    0x08000378   0x08000378   0x00000004   Code   RO          250    i.MemManage_Handler  stm32f10x_it.c.o
    0x0800037c   0x0800037c   0x00000090   Code   RO          468    i.Motor_init        motor_pid.o
    0x0800040c   0x0800040c   0x00000002   Code   RO          251    i.NMI_Handler       stm32f10x_it.c.o
    0x0800040e   0x0800040e   0x00000002   PAD
    0x08000410   0x08000410   0x00000070   Code   RO          543    i.NVIC_Init         misc.o
    0x08000480   0x08000480   0x00000014   Code   RO          544    i.NVIC_PriorityGroupConfig  misc.o
    0x08000494   0x08000494   0x00000002   Code   RO          252    i.PendSV_Handler    stm32f10x_it.c.o
    0x08000496   0x08000496   0x00000002   PAD
    0x08000498   0x08000498   0x00000020   Code   RO         2110    i.RCC_APB1PeriphClockCmd  stm32f10x_rcc.o
    0x080004b8   0x080004b8   0x00000020   Code   RO         2112    i.RCC_APB2PeriphClockCmd  stm32f10x_rcc.o
    0x080004d8   0x080004d8   0x00000002   Code   RO          253    i.SVC_Handler       stm32f10x_it.c.o
    0x080004da   0x080004da   0x00000008   Code   RO           24    i.SetSysClock       system_stm32f10x.o
    0x080004e2   0x080004e2   0x00000002   PAD
    0x080004e4   0x080004e4   0x000000e0   Code   RO           25    i.SetSysClockTo72   system_stm32f10x.o
    0x080005c4   0x080005c4   0x00000028   Code   RO          547    i.SysTick_CLKSourceConfig  misc.o
    0x080005ec   0x080005ec   0x00000002   Code   RO          254    i.SysTick_Handler   stm32f10x_it.c.o
    0x080005ee   0x080005ee   0x00000002   PAD
    0x080005f0   0x080005f0   0x00000060   Code   RO           27    i.SystemInit        system_stm32f10x.o
    0x08000650   0x08000650   0x00000054   Code   RO          255    i.TIM2_IRQHandler   stm32f10x_it.c.o
    0x080006a4   0x080006a4   0x0000006c   Code   RO          256    i.TIM3_IRQHandler   stm32f10x_it.c.o
    0x08000710   0x08000710   0x00000068   Code   RO          378    i.TIM3_Init         pwm_out.o
    0x08000778   0x08000778   0x0000001c   Code   RO          257    i.TIM4_IRQHandler   stm32f10x_it.c.o
    0x08000794   0x08000794   0x00000006   Code   RO         2739    i.TIM_ClearITPendingBit  stm32f10x_tim.o
    0x0800079a   0x0800079a   0x00000018   Code   RO         2744    i.TIM_Cmd           stm32f10x_tim.o
    0x080007b2   0x080007b2   0x00000022   Code   RO         2765    i.TIM_GetITStatus   stm32f10x_tim.o
    0x080007d4   0x080007d4   0x00000012   Code   RO         2769    i.TIM_ITConfig      stm32f10x_tim.o
    0x080007e6   0x080007e6   0x00000002   PAD
    0x080007e8   0x080007e8   0x000000a4   Code   RO         2815    i.TIM_TimeBaseInit  stm32f10x_tim.o
    0x0800088c   0x0800088c   0x00000002   Code   RO          258    i.USART2_IRQHandler  stm32f10x_it.c.o
    0x0800088e   0x0800088e   0x0000001a   Code   RO         3283    i.USART_GetFlagStatus  stm32f10x_usart.o
    0x080008a8   0x080008a8   0x00000008   Code   RO         3297    i.USART_SendData    stm32f10x_usart.o
    0x080008b0   0x080008b0   0x000000e4   Code   RO          514    i.Up_Com_data       uart.o
    0x08000994   0x08000994   0x00000004   Code   RO          259    i.UsageFault_Handler  stm32f10x_it.c.o
    0x08000998   0x08000998   0x00000030   Code   RO          515    i.Usart_SendArray   uart.o
    0x080009c8   0x080009c8   0x0000001e   Code   RO          516    i.Usart_SendByte    uart.o
    0x080009e6   0x080009e6   0x0000000e   Code   RO         3531    i.__scatterload_copy  mc_w.l(handlers.o)
    0x080009f4   0x080009f4   0x00000002   Code   RO         3532    i.__scatterload_null  mc_w.l(handlers.o)
    0x080009f6   0x080009f6   0x0000000e   Code   RO         3533    i.__scatterload_zeroinit  mc_w.l(handlers.o)
    0x08000a04   0x08000a04   0x00000038   Code   RO          379    i.led_init          pwm_out.o
    0x08000a3c   0x08000a3c   0x00000054   Code   RO          137    i.main              main.c.o
    0x08000a90   0x08000a90   0x00000020   Data   RO         3529    Region$$Table       anon$$obj.o


    Execution Region RW_IRAM1 (Exec base: 0x20000000, Load base: 0x08000ab0, Size: 0x00000438, Max: 0x0000c000, ABSOLUTE)

    Exec Addr    Load Addr    Size         Type   Attr      Idx    E Section Name        Object

    0x20000000   0x08000ab0   0x00000014   Data   RW           28    .data               system_stm32f10x.o
    0x20000014   0x08000ac4   0x00000002   Data   RW          138    .data               main.c.o
    0x20000016   0x08000ac6   0x00000002   Data   RW          260    .data               stm32f10x_it.c.o
    0x20000018   0x08000ac8   0x00000004   Data   RW          344    .data               delay.o
    0x2000001c        -       0x00000018   Zero   RW          470    .bss                motor_pid.o
    0x20000034   0x08000acc   0x00000004   PAD
    0x20000038        -       0x00000400   Zero   RW            1    STACK               startup_stm32f10x_hd.o


==============================================================================

Image component sizes


      Code (inc. data)   RO Data    RW Data    ZI Data      Debug   Object Name

         0          0          0          0          0       4500   core_cm3.o
       144         22          0          4          0       1028   delay.o
        84          6          0          2          0     234225   main.c.o
       172         22          0          0          0       2197   misc.o
       194         28          0          0         24       2223   motor_pid.o
       160         12          0          0          0        971   pwm_out.o
        36          8        304          0       1024        828   startup_stm32f10x_hd.o
       286          0          0          0          0       3176   stm32f10x_gpio.o
       248         36          0          2          0       5582   stm32f10x_it.c.o
        64         12          0          0          0       1138   stm32f10x_rcc.o
       246         42          0          0          0       3694   stm32f10x_tim.o
        34          0          0          0          0       2743   stm32f10x_usart.o
       328         28          0         20          0     241773   system_stm32f10x.o
       306          6          0          0          0       2153   uart.o

    ----------------------------------------------------------------------
      2314        222        336         28       1052     506231   Object Totals
         0          0         32          0          0          0   (incl. Generated)
        12          0          0          0          4          0   (incl. Padding)

    ----------------------------------------------------------------------

      Code (inc. data)   RO Data    RW Data    ZI Data      Debug   Library Member Name

         0          0          0          0          0          0   entry.o
         0          0          0          0          0          0   entry10a.o
         0          0          0          0          0          0   entry11a.o
         8          4          0          0          0          0   entry2.o
         4          0          0          0          0          0   entry5.o
         0          0          0          0          0          0   entry7b.o
         0          0          0          0          0          0   entry8b.o
         8          4          0          0          0          0   entry9a.o
        30          0          0          0          0          0   handlers.o
        36          8          0          0          0         68   init.o

    ----------------------------------------------------------------------
        86         16          0          0          0         68   Library Totals
         0          0          0          0          0          0   (incl. Padding)

    ----------------------------------------------------------------------

      Code (inc. data)   RO Data    RW Data    ZI Data      Debug   Library Name

        86         16          0          0          0         68   mc_w.l

    ----------------------------------------------------------------------
        86         16          0          0          0         68   Library Totals

    ----------------------------------------------------------------------

==============================================================================


      Code (inc. data)   RO Data    RW Data    ZI Data      Debug   

      2400        238        336         28       1052     504527   Grand Totals
      2400        238        336         28       1052     504527   ELF Image Totals
      2400        238        336         28          0          0   ROM Totals

==============================================================================

    Total RO  Size (Code + RO Data)                 2736 (   2.67kB)
    Total RW  Size (RW Data + ZI Data)              1080 (   1.05kB)
    Total ROM Size (Code + RO Data + RW Data)       2764 (   2.70kB)

==============================================================================

