:020000040800F2
:1000000038040020450100080D04000875030008AD
:10001000790300088D010008950900080000000020
:10002000000000000000000000000000D9040008EB
:10003000910100080000000095040008ED0500088B
:100040005F0100085F0100085F0100085F01000810
:100050005F0100085F0100085F0100085F01000800
:100060005F0100085F0100085F0100085F010008F0
:100070005F0100085F0100085F0100085F010008E0
:100080005F0100085F0100085F0100085F010008D0
:100090005F0100085F0100085F0100085F010008C0
:1000A0005F0100085F0100085F0100085F010008B0
:1000B00051060008A5060008790700085F0100083E
:1000C0005F0100085F0100085F0100085F01000890
:1000D0005F0100085F0100088D0800085F0100084B
:1000E0005F0100085F0100085F0100085F01000870
:1000F0005F0100085F0100085F0100085F01000860
:100100005F0100085F0100085F0100085F0100084F
:100110005F0100085F0100085F0100085F0100083F
:100120005F0100085F0100085F0100085F0100082F
:10013000DFF80CD000F018F8004800473D0A00082E
:10014000380400200648804706480047FEE7FEE7DF
:10015000FEE7FEE7FEE7FEE7FEE7FEE7FEE7FEE777
:10016000F105000831010008064C074D06E0E06883
:1001700040F0010394E8070098471034AC42F6D3EE
:10018000FFF7DAFF900A0008B00A000800BFFEE798
:100190007047000010B56FF0040000F013FA0A4831
:1001A00000680A49B0FBF1F0094908700846007878
:1001B00000EB4001C1EBC0104FF6FF7101EAC00037
:1001C0000449088010BD00000000002000127A00E1
:1001D000180000201A0000200146114A12884A43E4
:1001E0004FF0E0235A6100229A611A46126942F0E8
:1001F00001021A6100BF4FF0E022106900F0010215
:100200001AB100F48032002AF5D04FF0E0221269D2
:1002100022F001024FF0E0231A6100229A61704738
:100220001A0000202DE9F04102460025002600209A
:1002300000230024002791F803C00CF00F0591F86B
:1002400003C00CF0100CBCF1000F03D091F802C0F9
:100250004CEA050591F800C0BCF1000F31D01468DC
:1002600000202BE04FF0010C0CFA00F3B1F800C0B5
:100270000CEA03069E4220D183004FF00F0C0CFACB
:1002800003F7BC4305FA03FC4CEA040491F803C0ED
:10029000BCF1280F06D14FF0010C0CFA00FCC2F89B
:1002A00014C00AE091F803C0BCF1480F05D14FF02B
:1002B000010C0CFA00FCC2F810C0401C0828D1D375
:1002C0001460B1F800C0BCF1FF0F34DD54680020A9
:1002D0002EE000F1080C4FF0010808FA0CF3B1F819
:1002E00000C00CEA03069E4221D183004FF00F0CA0
:1002F0000CFA03F7BC4305FA03FC4CEA040491F83A
:1003000003C0BCF1280F05D100F1080C08FA0CF865
:10031000C2F8148091F803C0BCF1480F07D100F176
:10032000080C4FF0010808FA0CF8C2F81080401CC5
:100330000828CED35460BDE8F081F8B507460C46D6
:1003400015461E460121304600F0B6F8ADF80040D3
:100350008DF8035003208DF8020069463846FFF7F8
:1003600061FF2146384600F001F8F8BD4161704751
:100370000161704700BFFEE700BFFEE710B5002037
:100380001B4908604860088148811A490860486034
:10039000088148810423102211461748FFF7CDFF3A
:1003A00010231A4601211548FFF7C7FF10231A46EC
:1003B00002211248FFF7C1FF10231A4604210F48FB
:1003C000FFF7BBFF10231A4608210C48FFF7B5FFC3
:1003D00001200B49086000200A49C1F88001012072
:1003E00009490860091D08600020091D086010BD4A
:1003F0001C000020280000200008014000100140DF
:1004000090012142000022428401224270470000F4
:1004100070B5002100230F22C47804B3154C246862
:1004200004F4E064C4F5E064210AC1F10403CA40A5
:10043000447804FA03F184781440214309010E4CF6
:100440000678A155047804F01F050124AC40057816
:100450006D11AD0005F1E025C5F8004109E0047813
:1004600004F01F050124AC40044D0678761145F8D0
:10047000264070BD0CED00E000E400E080E100E00B
:1004800002490143024A1160704700000000FA056A
:100490000CED00E07047000029B1064AD269024322
:1004A000044BDA6104E0034AD2698243014BDA610A
:1004B000704700000010024029B1064A92690243C9
:1004C000044B9A6104E0034A92698243014B9A61AA
:1004D0007047000000100240704710B500F002F8AD
:1004E00010BD00000CB5002001900090334800685A
:1004F00040F480303149086000BF3048006800F4A3
:10050000003000900198401C0190009818B90198A3
:10051000B0F5A06FF1D12948006800F4003010B1A7
:100520000120009001E0002000900098012843D1B4
:100530002348006840F01000214908600846006820
:1005400020F0030008600846006840F002000860E0
:100550001A4840681949486008464068486008469B
:10056000406840F4806048600846406820F47C1091
:1005700048600846406840F4E81048600846006853
:1005800040F08070086000BF0C48006800F0007008
:100590000028F9D00948406820F003000749486066
:1005A0000846406840F00200486000BF03484068C9
:1005B00000F00C000828F9D10CBD0000001002402A
:1005C00000200240042808D14FF0E021096941F0E1
:1005D00004014FF0E022116107E04FF0E0210969CA
:1005E00021F004014FF0E0221161704770470000D4
:1005F00010B51348006840F0010011490860084632
:100600004068104908400E494860084600680E4995
:1006100008400B4908600846006820F48020086004
:100620000846406820F4FE0048604FF41F008860D0
:10063000FFF753FF4FF000600449086010BD000051
:10064000001002400000FFF8FFFFF6FE08ED00E09A
:1006500010B50121880700F0ACF8D0B1012188075E
:1006600000F098F80B48008800B20B4948810B480D
:10067000008800B20A494881084A1188054A108852
:100680000223012200F014F90020024908800349E6
:10069000088010BD240400401C00002024080040F5
:1006A0002800002010B50121154800F082F830B371
:1006B00014480088401C13490880084600881249E5
:1006C0000988884204DA4FF400511048FFF74EFEC3
:1006D0000C4800880C490988884204DD4FF4005119
:1006E0000A48FFF745FE07480088B0F5FA6F02D1C7
:1006F0000020044908800121014800F04BF810BD9A
:1007000000040040160000201400002000100140EA
:100710001FB54FF4A060FFF7B3FE1D208DF8000059
:1007200000208DF8010003208DF8020001208DF8D3
:1007300003006846FFF76CFE01210220FFF7ACFEC4
:100740000A20ADF808004720ADF804000020ADF8FD
:100750000A00ADF8060001A9064800F045F801229C
:100760001146044800F036F80121024800F015F85F
:100770001FBD0000000400400548008800F0010093
:1007800028B10348008820F0010001490880704723
:1007900010080040CA430282704721B1028842F02B
:1007A0000102028004E002884FF6FE731A400280C4
:1007B000704730B50246002000230024158A05EA60
:1007C0000103958905EA010413B10CB1012000E091
:1007D000002030BD1AB183890B43838102E08389F5
:1007E0008B43838170470000002202881D4B984292
:1007F0000ED01D4B98420BD0B0F1804F08D01B4B50
:10080000984205D01A4B984202D01A4B984204D114
:100810004FF68F731A404B881A43174B984207D0F4
:10082000164B984204D04FF6FF431A40CB881A4328
:1008300002808B8883850B8803850A4B98420BD0F6
:10084000094B984208D00E4B984205D00D4B984268
:1008500002D00D4B984201D10B7A0386012383828B
:1008600070470000002C01400034014000040040AB
:1008700000080040000C0040001000400014004040
:1008800000400140004401400048014070470246DA
:100890000020B1F5007F00D100BF13880B400BB1E1
:1008A000012000E000207047C1F3080282807047F9
:1008B000FFB599B00025002700260024AA22214672
:1008C000641C0DF80120FF222146641C0DF8012054
:1008D000F1222146641C0DF8012008222146641CE7
:1008E0000DF801209DF864202146641C0DF80120BC
:1008F0009DF865202146641C0DF801209DF86820B4
:100900002146641C0DF801209DF869202046611CD9
:10091000CCB20DF800209DF86C202146601CC4B2BA
:100920000DF801209DF86D202046611CCCB20DF819
:1009300000209DF870202046611CCCB20DF80020EC
:100940009DF871202046611CCCB20DF8002000BF3C
:1009500007E01DF805003044C6B2B819C7B2681CDC
:10096000C5B29DF80300001DA842F2DC2046611CC0
:10097000CCB20DF800602046611CCCB20DF80070BE
:1009800022466946024800F007F81DB0F0BD00009D
:100990000044004000BFFEE72DE9F04107460D4648
:1009A0001646002405E0295D384600F00DF8601C6D
:1009B000C4B2B442F7DB00BF40213846FFF767FFFF
:1009C0000028F9D0BDE8F08170B504460D462946EF
:1009D0002046FFF769FF00BF80212046FFF757FF41
:1009E0000028F9D070BD02E008C8121F08C1002A13
:1009F000FAD170477047002001E001C1121F002AA0
:100A0000FBD1704708B501211020FFF755FD1020DC
:100A10008DF8030003208DF802004FF40050ADF86C
:100A2000000069460448FFF7FDFB4FF400510248FF
:100A3000FFF79CFC08BD0000001001400124FFF7F7
:100A4000A9FBFFF79BFCFFF7DDFFFFF761FE1BE053
:100A50006CB10120FFF7C0FB0C480088401C0B491B
:100A6000088008460088B0F5FA6F00D100245CB910
:100A70000120FFF7B1FB05480088401E03490880AC
:100A80000846008800B90124E2E7000014000020B5
:100A9000B00A0008000000201C000000E609000861
:100AA000CC0A00081C0000201C040000F609000805
:100AB00000A24A040000000000000000010203043C
:0C0AC0000607080900000000000000000C
:0400000508000131BD
:00000001FF
