


ARM Macro Assembler    Page 1 


    1 00000000                 AREA             SORT,CODE,READONLY
    2 00000000                 ENTRY
    3 00000000                 EXPORT           __main
    4 00000000         __main
    5 00000000 F04F 0009       MOV              R0 ,#9
    6 00000004 F04F 4280       LDR              R2,=0x40000000
    7 00000008 F1A0 0101       SUB              R1,R0,#1
    8 0000000C F04F 0404       MOV              R4,#4
    9 00000010 FB01 2304       MLA              R3,R1,R4,R2
   10 00000014 F1A3 0404       SUB              R4,R3,#4
   11 00000018 F102 0504 
                       LOOP1   ADD              R5,R2,#4
   12 0000001C 6816    LOOP2   LDR              R6,[R2]
   13 0000001E 682F            LDR              R7,[R5]
   14 00000020 42BE            CMP              R6,R7
   15 00000022 BF84 602E       STRHI            R6,[R5]
   16 00000026 6017            STRHI            R7,[R2]
   17 00000028 F105 0504       ADD              R5,R5,#4
   18 0000002C 429D            CMP              R5,R3
   19 0000002E D9F5            BLS              LOOP2
   20 00000030 F102 0204       ADD              R2,R2,#4
   21 00000034 42A2            CMP              R2,R4
   22 00000036 D9EF            BLS              LOOP1
   23 00000038 F04F 4280       LDR              R2,=0X40000000
   24 0000003C EA4F 0050       MOV              R0,R0,LSR #1
   25 00000040 F04F 0404       MOV              R4,#4
   26 00000044 FB00 2304       MLA              R3,R0,R4,R2
   27 00000048 6819            LDR              R1,[R3]
   28 0000004A F04F 0064       MOV              R0,#100
   29 0000004E                 END
Command Line: --debug --xref --diag_suppress=9931 --cpu=Cortex-M3 --apcs=interw
ork --depend=.\objects\filter.d -o.\objects\filter.o -I.\RTE\Device\STM32F103C8
 -I.\RTE\_Target_1 -ID:\Keil_v5\ARM\PACK\ARM\CMSIS\4.5.0\CMSIS\Include -ID:\Kei
l_v5\ARM\PACK\Keil\STM32F1xx_DFP\2.4.0\Device\Include --predefine="__UVISION_VE
RSION SETA 525" --predefine="_RTE_ SETA 1" --predefine="STM32F10X_MD SETA 1" --
list=.\listings\filter.lst filter.s



ARM Macro Assembler    Page 1 Alphabetic symbol ordering
Relocatable symbols

LOOP1 00000018

Symbol: LOOP1
   Definitions
      At line 11 in file filter.s
   Uses
      At line 22 in file filter.s
Comment: LOOP1 used once
LOOP2 0000001C

Symbol: LOOP2
   Definitions
      At line 12 in file filter.s
   Uses
      At line 19 in file filter.s
Comment: LOOP2 used once
SORT 00000000

Symbol: SORT
   Definitions
      At line 1 in file filter.s
   Uses
      None
Comment: SORT unused
__main 00000000

Symbol: __main
   Definitions
      At line 4 in file filter.s
   Uses
      At line 3 in file filter.s
Comment: __main used once
4 symbols
337 symbols in table
