


ARM Macro Assembler    Page 1 


    1 00000000                 AREA             MYDATA, DATA
    2 00000000         
    3 00000000                 AREA             MYCODE, CODE
    4 00000000                 ENTRY
    5 00000000                 EXPORT           __main
    6 00000000         __main
    7 00000000 F04F 000A       MOV              R0, #10
    8 00000004 F04F 010B       MOV              R1, #11
    9 00000008 F04F 020C       MOV              R2, #12
   10 0000000C F04F 030D       MOV              R3, #13
   11 00000010         ;LDR R0, =func01
   12 00000010         
   13 00000010 F000 F809       BL               func01
   14 00000014         ;LDR R1, =func02
   15 00000014 F000 F80A       BL               func02
   16 00000018         
   17 00000018 F000 F80B       BL               func03
   18 0000001C F8DF E01C       LDR              LR, =func01
   19 00000020 F8DF F01C       LDR              PC, =func03
   20 00000024 E7FE            B                .
   21 00000026         
   22 00000026         func01
   23 00000026 F04F 0505       MOV              R5, #05
   24 0000002A 4770            BX               LR
   25 0000002C         
   26 0000002C         func02
   27 0000002C F04F 0606       MOV              R6, #06
   28 00000030 4770            BX               LR
   29 00000032         
   30 00000032         func03
   31 00000032 F04F 0707       MOV              R7, #07
   32 00000036 F04F 0808       MOV              R8, #08
   33 0000003A 4770            BX               LR
   34 0000003C         
                       
              00000000 
              00000000 
Command Line: --debug --xref --diag_suppress=9931 --cpu=Cortex-M3 --apcs=interw
ork --depend=.\objects\st_led.d -o.\objects\st_led.o -I.\RTE\Device\STM32F103C8
 -I.\RTE\_Target_1 -ID:\Keil_v5\ARM\PACK\ARM\CMSIS\4.5.0\CMSIS\Include -ID:\Kei
l_v5\ARM\PACK\Keil\STM32F1xx_DFP\2.4.0\Device\Include --predefine="__UVISION_VE
RSION SETA 525" --predefine="_RTE_ SETA 1" --predefine="STM32F10X_MD SETA 1" --
list=.\listings\st_led.lst st_led.s



ARM Macro Assembler    Page 1 Alphabetic symbol ordering
Relocatable symbols

MYDATA 00000000

Symbol: MYDATA
   Definitions
      At line 1 in file st_led.s
   Uses
      None
Comment: MYDATA unused
1 symbol



ARM Macro Assembler    Page 1 Alphabetic symbol ordering
Relocatable symbols

MYCODE 00000000

Symbol: MYCODE
   Definitions
      At line 3 in file st_led.s
   Uses
      None
Comment: MYCODE unused
__main 00000000

Symbol: __main
   Definitions
      At line 6 in file st_led.s
   Uses
      At line 5 in file st_led.s
Comment: __main used once
func01 00000026

Symbol: func01
   Definitions
      At line 22 in file st_led.s
   Uses
      At line 13 in file st_led.s
      At line 18 in file st_led.s

func02 0000002C

Symbol: func02
   Definitions
      At line 26 in file st_led.s
   Uses
      At line 15 in file st_led.s
Comment: func02 used once
func03 00000032

Symbol: func03
   Definitions
      At line 30 in file st_led.s
   Uses
      At line 17 in file st_led.s
      At line 19 in file st_led.s

5 symbols
341 symbols in table
