:020000040800F2
:10000000B006002089010008A70C00083F0C00087A
:10001000A50C00088F0200082D0E0008000000004B
:10002000000000000000000000000000AB0C000811
:100030009102000800000000A90C0008AD0C0008A7
:10004000A3010008A3010008A3010008A301000800
:10005000A3010008A3010008A3010008A3010008F0
:10006000A3010008A3010008A3010008A3010008E0
:10007000A3010008A3010008A3010008A3010008D0
:10008000A3010008A3010008A3010008A3010008C0
:10009000A3010008A3010008A3010008A3010008B0
:1000A000A3010008A3010008A3010008A3010008A0
:1000B000A3010008A3010008A3010008A301000890
:1000C000A3010008A3010008A3010008A301000880
:1000D000A3010008A3010008A3010008A301000870
:1000E000A3010008A3010008A301000800F002F822
:1000F00000F03AF80AA090E8000C82448344AAF188
:100100000107DA4501D100F02FF8AFF2090EBAE885
:100110000F0013F0010F18BFFB1A43F0010318473B
:10012000800D0000A00D0000103A24BF78C878C1EF
:10013000FAD8520724BF30C830C144BF04680C60ED
:10014000704700000023002400250026103A28BF35
:1001500078C1FBD8520728BF30C148BF0B60704739
:100160001FB51FBD10B510BD00F058F81146FFF7C0
:10017000F7FF00F06DFE00F076F803B4FFF7F2FF32
:1001800003BC00F07DF8000009488047094800479B
:10019000FEE7FEE7FEE7FEE7FEE7FEE7FEE7FEE737
:1001A000FEE7FEE704480549054A064B7047000094
:1001B0000F0D0008ED000008B0000020B006002080
:1001C000B0020020B00200204FF0000200B513463C
:1001D00094469646203922BFA0E80C50A0E80C5067
:1001E000B1F12001BFF4F7AF090728BFA0E80C5018
:1001F00048BF0CC05DF804EB890028BF40F8042B11
:1002000008BF704748BF20F8022B11F0804F18BF7D
:1002100000F8012B7047704770477047754600F033
:100220002BF8AE4605006946534620F00700854688
:1002300018B020B5FFF7B6FFBDE820404FF000062C
:100240004FF000074FF000084FF0000B21F00701BE
:10025000AC46ACE8C009ACE8C009ACE8C009ACE801
:10026000C0098D46704710B50446AFF300802046A4
:10027000BDE81040FFF781BF0048704750000020E4
:1002800001491820ABBEFEE7260002007047FEE7DA
:10029000704772B6FEE700002DE9F84FDFF8B8911D
:1002A000002409F1040A0AF1040B23460F270BF17D
:1002B000040EC9E00125A5402A40AA427DD1674E1F
:1002C000D1F804C0ACEB0608B44532D014DCBCF164
:1002D000030F3AD009DCBCF1000F2AD0BCF1010FAA
:1002E0001CD0BCF1020F31D11DE0BCF1110F17D0B1
:1002F000BCF1120F2AD119E0B8F5881F19D006DC1D
:10030000B8F5803F15D0B8F5801F1FD111E0B8F5C2
:10031000001F0ED0B8F5041F18D10AE0CB6815E015
:10032000CB681B1D12E0CB6808330FE0CB680C33A1
:100330000CE08B682BB1012B4FF0080303D0456113
:1003400004E0042302E0056100E00023FF2A01D855
:10035000064601E000F104064FEA840501D9A5F143
:100360002005D6F8008007FA05FC28EA0C0803FAF5
:1003700005F548EA0508C6F800804D68ED0062D52D
:10038000374DAE6946F00106AE61AD6924F0030653
:1003900005F001050095334D06EB050CDCF808501F
:1003A000A607360F07FA06F825EA0805DFF8B88031
:1003B000404503D14FF0000817E044E0DFF8AC807F
:1003C000404502D14FF001080FE0DFF8A48040451E
:1003D00002D14FF0020808E0DFF89880404502D1D2
:1003E0004FF0030801E04FF0040808FA06F848EA65
:1003F0000508CCF808804D68D9F80060ED034D463B
:1004000001D5164300E096432E604D68DAF800608F
:10041000AD03554601D5164300E096432E604D6866
:10042000DBF80060ED025D4601D5164300E096431F
:100430002E604D68DEF80060AD02754601D51643AA
:1004400000E096432E60641C0D682A46E5407FF468
:1004500031AFBDE8F88F000000040140000011102A
:10046000001002400000014000080140000C014063
:1004700000100140001401400148806870470000EE
:1004800000000020024881680278114481607047B2
:1004900000000020074810B5016841F0100101601C
:1004A000032000F067F80F2000F006F800F024F8B1
:1004B000002010BD0020024070B50D4D04464FF4E1
:1004C0007A712878B1FBF0F00A490968B1FBF0F0C5
:1004D00000F0DEFA48B9102C07D200222146501E47
:1004E00000F028F800206C6070BD012070BD000095
:1004F000000000200C0000200C4808B5816941F084
:1005000001018161816901F001010091C16941F03E
:100510008051C161C06900F080500090044841687A
:1005200021F0E06141F08061416008BD00100240AF
:1005300000000140F0B40E4B1B680C46C3F30223CD
:10054000C3F10705042D00D90425191D072901D27F
:10055000002300E0DB1E012606FA05F1491E2140BA
:1005600099409E40761E16403143F0BC00F05FBCBF
:100570000CED00E0064900F0070208684FF6FF03A3
:10058000184040EA0220034A104308607047000008
:100590000CED00E00000FA052DE9F0470F460500DC
:1005A00061D0434E306800F00700B84209D230688D
:1005B00020F0070038433060306800F00700B84290
:1005C00051D128683B4C810712D5400703D560689C
:1005D00040F4E06060602878000703D5606840F46C
:1005E000605060606068A96820F0F00008436060B7
:1005F0002878C00728D06868012810D02168022810
:1006000010D0890700292EDA616821F00301014327
:100610006160FFF731FF804641F288390DE02168C3
:100620008903EFE78901EDE7FFF726FFA0EB08015B
:10063000494502D90320BDE8F0876068696800F089
:100640000C00B0EB810FEFD1306800F00700B8422A
:100650000BD9306820F0070038433060306800F074
:100660000700B84201D00120E5E72878400705D50A
:100670006068E96820F4E06008436060287800075B
:1006800006D56068296920F4605040EAC1006060C6
:1006900000F038F86168084AC1F30311515CC840A2
:1006A0000649086006480068FFF706FF0020C2E719
:1006B0000020024000100240880E00080C000020BC
:1006C000040000200448054900684968044AC1F351
:1006D0000221515CC84070470C000020001002400D
:1006E000980E00080448054900684968044AC1F3A7
:1006F000C221515CC84070470C000020001002402D
:10070000980E000812A185B00FC98DE80F0014A043
:10071000144A006804905168134801F00C03042B3C
:1007200010D0082B0ED1C1F38343C9031DF8030079
:100730000AD5516804AAC1F34041515C0A4A5043AA
:10074000B0FBF1F005B0704708494843FAE70000F4
:1007500002030405060708090A0B0C0D0E0F101002
:10076000010200000010024000127A0000093D0062
:100770002DE9F84F040070D02078C04DC00749D053
:100780006868C0F38100012807D06868C0F3810061
:10079000022809D16868C00306D52868800339D5C6
:1007A00060680028E7D035E06068B0F5803F0BD086
:1007B00010B1B0F5A02F11D0286820F48030286047
:1007C000286820F4802002E0286840F48030286007
:1007D000606890B1FFF750FE06460AE0286840F4D2
:1007E00080202860F0E700BFFFF746FE801B6428EA
:1007F00073D828688003F7D50CE0FFF73DFE064666
:1008000005E000BFFFF738FE801B6428F0D8286899
:100810008003F7D420789A4E80074FF001094FF0FB
:10082000000839D5686810F00C0F07D06868C0F36D
:100830008100022809D16868C00306D428688007AF
:1008400014D52069012808D110E02069B0B1C6F89C
:100850000090FFF711FE074605E00AE1FFF70CFEE6
:10086000C01B0228C4D828688007F7D528686169AA
:1008700020F0F80040EAC10028600DE0C6F80080D2
:10088000FFF7FAFD074604E0FFF7F6FDC01B02285C
:1008900023D828688007F7D4207800072CD579481A
:1008A000A169D9B1C0F80090FFF7E6FD074604E062
:1008B000FFF7E2FDC01B02280FD8686A8007F7D552
:1008C00071484FF4FA510068B0FBF1F0009000BF9E
:1008D0000098411E0091FAD20EE080E0C0F800803E
:1008E000FFF7CAFD074604E0FFF7C6FDC01B02285C
:1008F00075D8686A8007F7D42078400760D5E86922
:100900000027C00008D4E86940F08050E861E86939
:10091000012700F0805000905C480168C90513D49D
:100920000168834641F480710160FFF7A5FD8246AE
:1009300006E000BFFFF7A0FDA0EB0A0064284ED838
:10094000DBF80000C005F5D5E06801280AD008B141
:10095000052813D0286A20F001002862286A20F0B8
:10096000040002E0286A40F001002862E06841F2D9
:10097000883B98B1FFF780FD82460BE0286A40F083
:1009800004002862EEE700BFFFF776FDA0EB0A0146
:1009900059455AD8286A8007F6D50CE0FFF76CFD58
:1009A000824605E0FFF768FDA0EB0A0159454CD8E7
:1009B000286A8007F6D41FB1E86920F08050E8610A
:1009C000E06988B36968C1F38101022944D0022833
:1009D000C6F8608004D0FFF74FFD044638E034E0ED
:1009E000FFF74AFD074604E0FFF746FDC01B02285B
:1009F0002BD828688001F7D4206AB0F5803F05D154
:100A00006868A16820F4003008436860D4E90801F0
:100A10000843696821F4741108436860C6F860905F
:100A2000FFF72AFD044606E025E000BFFFF724FD9E
:100A3000001B022809D828688001F7D51BE000BFF9
:100A4000FFF71AFD001B022802D90320BDE8F88F2A
:100A500028688001F4D40EE00128F7D06868226A83
:100A600000F48031914204D1616A00F47010884230
:100A700001D00120EAE70020E8E700000010024072
:100A800000004242800442420C00002000700040FE
:100A900010B5401EB0F1807F01D3012010BD4FF092
:100AA000E02460610F21601700F0C1F90020A0610F
:100AB00007202061002010BD70B5040004D094F818
:100AC0003900002510B106E0012070BD84F83850CF
:100AD000204600F023F8242084F839002068C168FB
:100AE00021F40051C160204600F012F9206801692C
:100AF00021F4904101612068416921F02A0141619E
:100B00002068C16841F40051C160E563202084F889
:100B1000390084F83A00002070BD000030B585B07F
:100B200000240094019402940394006814498842BC
:100B300024D11448816941F480418161816901F4C3
:100B400080410491816941F00401816180690E4D09
:100B500000F0040004904FF4007000900220019017
:100B60000320039069462846FFF796FB2815CDE938
:100B70000004694628460294FFF78EFB05B030BD9D
:100B80000038014000100240000801402DE9F84300
:100B9000044690F839001F4616460D4620284CD1D1
:100BA000C5B1BEB194F83800012846D0012084F8C0
:100BB00038004FF00008C4F83C80212084F8390048
:100BC000FFF75AFCA6848146E684A068B0F5805FF2
:100BD00003D004E00120BDE8F883206928B12E4647
:100BE0005FF0000584F838800EE00026FAE78021E7
:100BF000204600F0E9F8A0B9AEB116F8010B216863
:100C00004860E08C401EE084E08C4B464FF00002D0
:100C100000970028EBD14FF04001204600F0D4F8B7
:100C200030B10320D7E735F8020BC0F30800E6E740
:100C3000202084F839000020CDE70220CBE7FEE732
:100C4000094808B5816941F020018161816901F09D
:100C500020010091816941F004018161806900F007
:100C60000400009008BD0000001002400C4810B5C0
:100C70000A4901604FF4E1314160002181600C229A
:100C8000C160C0E904128161C161FFF715FF00284E
:100C900003D0BDE81040FFF7FCBA10BD003801409A
:100CA00010000020FEE7FEE770477047FFF7EABB41
:100CB00030B58FB028216846FFF786FA14210AA8BC
:100CC000FFF782FA01210804CDE900100024029404
:100CD00002250491CDE907504FF4E01009906846D1
:100CE000FFF746FD08B172B6FEE70F20CDE90A0511
:100CF0004FF48060CDE90C4002210AA80E94FFF762
:100D00004BFC002801D072B6FEE70FB030BD704733
:100D100070B5044600680169E26821F4405111434E
:100D200001612169A0680843616908432168CA68B4
:100D300041F20C639A430243CA6020684169A26988
:100D400021F44071114341611E492068884202D15B
:100D5000FFF7C8FC01E0FFF7B5FC00EBC00101EBB9
:100D60000012606864218000B2FBF0F3B3FBF1F382
:100D70006FF018067343B2FBF0F5B2FBF0F605EB2B
:100D80008305322303EB0515B5FBF1F5B6FBF1F650
:100D900005F0F00505EB0615B2FBF0F6B2FBF0F03E
:100DA000B0FBF1F06FF01802504306EB800003EB4C
:100DB0000010B0FBF1F0216800F00F0028448860BB
:100DC00070BD0000003801402DE9F04198461746FB
:100DD0000E460446069D1DE0681C1BD02DB1FFF792
:100DE0004BFBA0EB0800A84214D92068C16821F48D
:100DF000D071C1602068416921F00101416120206A
:100E000084F8390084F83A00002084F83800032080
:100E1000BDE8F0812068006836EA000004D00020B8
:100E2000B842D9D00020F3E70120F9E7FEE709072F
:100E3000090E002804DB00F1E02080F80014704760
:100E400000F00F0000F1E02080F8141D7047000052
:100E5000FFF720FBFFF72CFFFFF7F2FEFFF706FF7F
:100E60004FF6FF7423460F2202A10648FFF78EFEBD
:100E7000F8E7000068656C6C6F2077696E646F77C7
:100E800073210A0010000020000000000000000094
:100E90000102030406070809000000000102030420
:100EA000C00E00080000002010000000280100080B
:100EB000D00E000810000020A00600004401000829
:100EC0000100000010000000000000000024F400F9
:04000005080000ED02
:00000001FF
