:020000040800F2
:1000000000060020ED000008F5000008F7000008D9
:10001000F9000008FB000008FD00000800000000D7
:10002000000000000000000000000000FF000008C9
:10003000010100080000000003010008050100089C
:100040000701000807010008070100080701000870
:100050000701000807010008070100080701000860
:100060000701000807010008070100080701000850
:100070000701000807010008070100080701000840
:100080000701000807010008070100080701000830
:100090000701000807010008070100080701000820
:1000A0000701000807010008070100080701000810
:1000B0000701000807010008070100080701000800
:1000C00007010008070100080701000807010008F0
:1000D00007010008070100080701000807010008E0
:1000E00007010008070100080701000809488047C8
:1000F00009480047FEE7FEE7FEE7FEE7FEE7FEE70A
:10010000FEE7FEE7FEE7FEE704480549054A064B21
:10011000704700006D020008350100080000002053
:1001200000060020000200200002002070477047F7
:10013000704700004FF009004FF08042A0F101012C
:100140004FF0040401FB0423A3F1040402F10405AD
:1001500016682F68BE4284BF2E60176005F1040543
:100160009D42F5D902F10402A242EFD94FF080423C
:100170004FEA50004FF0040400FB042319684FF0CD
:10018000640010B500F002F810BD00000CB50020AE
:10019000019000903348006840F480303149086095
:1001A00000BF3048006800F4003000900198401C07
:1001B0000190009818B90198B0F5A06FF1D12948C5
:1001C000006800F4003010B10120009001E0002030
:1001D00000900098012843D12348006840F01000A7
:1001E000214908600846006820F0070008600846BA
:1001F000006840F0020008601A48406819494860E9
:100200000846406848600846406840F4806048609E
:100210000846406820F47C1048600846406840F476
:10022000E81048600846006840F08070086000BF31
:100230000C48006800F000700028F9D009484068B8
:1002400020F00300074948600846406840F002007B
:10025000486000BF0348406800F00C000828F9D14E
:100260000CBD0000001002400020024010B51348F1
:10027000006840F0010011490860084640681049D4
:1002800008400E494860084600680E4908400B497E
:1002900008600846006820F480200860084640682E
:1002A00020F4FE0048604FF41F008860FFF769FFEC
:1002B0004FF000600449086010BD000000100240CB
:0C02C0000000FFF8FFFFF6FE08ED00E074
:0400000508000135B9
:00000001FF
